{
  "contractName": "Voting",
  "abi": [
    {
      "inputs": [],
      "stateMutability": "nonpayable",
      "type": "constructor"
    },
    {
      "anonymous": false,
      "inputs": [
        {
          "indexed": true,
          "internalType": "address",
          "name": "previousOwner",
          "type": "address"
        },
        {
          "indexed": true,
          "internalType": "address",
          "name": "newOwner",
          "type": "address"
        }
      ],
      "name": "OwnershipTransferred",
      "type": "event"
    },
    {
      "anonymous": false,
      "inputs": [
        {
          "indexed": false,
          "internalType": "uint256",
          "name": "proposalId",
          "type": "uint256"
        }
      ],
      "name": "ProposalRegistered",
      "type": "event"
    },
    {
      "anonymous": false,
      "inputs": [
        {
          "indexed": false,
          "internalType": "address",
          "name": "voter",
          "type": "address"
        },
        {
          "indexed": false,
          "internalType": "uint256",
          "name": "proposalId",
          "type": "uint256"
        }
      ],
      "name": "Voted",
      "type": "event"
    },
    {
      "anonymous": false,
      "inputs": [
        {
          "indexed": false,
          "internalType": "address",
          "name": "voterAddress",
          "type": "address"
        }
      ],
      "name": "VoterRegistered",
      "type": "event"
    },
    {
      "anonymous": false,
      "inputs": [
        {
          "indexed": false,
          "internalType": "enum Voting.WorkflowStatus",
          "name": "previousStatus",
          "type": "uint8"
        },
        {
          "indexed": false,
          "internalType": "enum Voting.WorkflowStatus",
          "name": "newStatus",
          "type": "uint8"
        }
      ],
      "name": "WorkflowStatusChange",
      "type": "event"
    },
    {
      "inputs": [],
      "name": "owner",
      "outputs": [
        {
          "internalType": "address",
          "name": "",
          "type": "address"
        }
      ],
      "stateMutability": "view",
      "type": "function",
      "constant": true
    },
    {
      "inputs": [],
      "name": "renounceOwnership",
      "outputs": [],
      "stateMutability": "nonpayable",
      "type": "function"
    },
    {
      "inputs": [
        {
          "internalType": "address",
          "name": "newOwner",
          "type": "address"
        }
      ],
      "name": "transferOwnership",
      "outputs": [],
      "stateMutability": "nonpayable",
      "type": "function"
    },
    {
      "inputs": [],
      "name": "initWhitelistForDemo",
      "outputs": [],
      "stateMutability": "nonpayable",
      "type": "function"
    },
    {
      "inputs": [],
      "name": "getWorkflowstatus",
      "outputs": [
        {
          "internalType": "enum Voting.WorkflowStatus",
          "name": "",
          "type": "uint8"
        }
      ],
      "stateMutability": "view",
      "type": "function",
      "constant": true
    },
    {
      "inputs": [
        {
          "internalType": "address",
          "name": "_voterAddress",
          "type": "address"
        }
      ],
      "name": "addVoter",
      "outputs": [],
      "stateMutability": "nonpayable",
      "type": "function"
    },
    {
      "inputs": [
        {
          "internalType": "address",
          "name": "_voterAddress",
          "type": "address"
        }
      ],
      "name": "removeVoter",
      "outputs": [],
      "stateMutability": "nonpayable",
      "type": "function"
    },
    {
      "inputs": [
        {
          "internalType": "address",
          "name": "_voterAddress",
          "type": "address"
        }
      ],
      "name": "getVoter",
      "outputs": [
        {
          "components": [
            {
              "internalType": "bool",
              "name": "isRegistered",
              "type": "bool"
            },
            {
              "internalType": "bool",
              "name": "hasVoted",
              "type": "bool"
            },
            {
              "internalType": "uint256",
              "name": "votedProposalId",
              "type": "uint256"
            }
          ],
          "internalType": "struct Voting.Voter",
          "name": "",
          "type": "tuple"
        }
      ],
      "stateMutability": "view",
      "type": "function",
      "constant": true
    },
    {
      "inputs": [
        {
          "internalType": "string",
          "name": "_description",
          "type": "string"
        }
      ],
      "name": "requestProposal",
      "outputs": [],
      "stateMutability": "nonpayable",
      "type": "function"
    },
    {
      "inputs": [],
      "name": "getProposals",
      "outputs": [
        {
          "components": [
            {
              "internalType": "string",
              "name": "description",
              "type": "string"
            },
            {
              "internalType": "uint256",
              "name": "voteCount",
              "type": "uint256"
            }
          ],
          "internalType": "struct Voting.Proposal[]",
          "name": "",
          "type": "tuple[]"
        }
      ],
      "stateMutability": "view",
      "type": "function",
      "constant": true
    },
    {
      "inputs": [
        {
          "internalType": "uint256",
          "name": "_proposalId",
          "type": "uint256"
        }
      ],
      "name": "getProposal",
      "outputs": [
        {
          "components": [
            {
              "internalType": "string",
              "name": "description",
              "type": "string"
            },
            {
              "internalType": "uint256",
              "name": "voteCount",
              "type": "uint256"
            }
          ],
          "internalType": "struct Voting.Proposal",
          "name": "",
          "type": "tuple"
        }
      ],
      "stateMutability": "view",
      "type": "function",
      "constant": true
    },
    {
      "inputs": [],
      "name": "startRegisteringProposals",
      "outputs": [],
      "stateMutability": "nonpayable",
      "type": "function"
    },
    {
      "inputs": [],
      "name": "stopRegisteringProposals",
      "outputs": [],
      "stateMutability": "nonpayable",
      "type": "function"
    },
    {
      "inputs": [],
      "name": "startVotingSession",
      "outputs": [],
      "stateMutability": "nonpayable",
      "type": "function"
    },
    {
      "inputs": [
        {
          "internalType": "uint256",
          "name": "_proposalId",
          "type": "uint256"
        }
      ],
      "name": "vote",
      "outputs": [],
      "stateMutability": "nonpayable",
      "type": "function"
    },
    {
      "inputs": [],
      "name": "stopVotingSession",
      "outputs": [],
      "stateMutability": "nonpayable",
      "type": "function"
    },
    {
      "inputs": [],
      "name": "tallyVotes",
      "outputs": [],
      "stateMutability": "nonpayable",
      "type": "function"
    },
    {
      "inputs": [],
      "name": "getWinningProposalId",
      "outputs": [
        {
          "internalType": "uint256",
          "name": "",
          "type": "uint256"
        }
      ],
      "stateMutability": "view",
      "type": "function",
      "constant": true
    },
    {
      "inputs": [],
      "name": "getWinner",
      "outputs": [
        {
          "components": [
            {
              "internalType": "string",
              "name": "description",
              "type": "string"
            },
            {
              "internalType": "uint256",
              "name": "voteCount",
              "type": "uint256"
            }
          ],
          "internalType": "struct Voting.Proposal",
          "name": "",
          "type": "tuple"
        }
      ],
      "stateMutability": "view",
      "type": "function",
      "constant": true
    }
  ],
  "bytecode": "0x60806040523480156200001157600080fd5b5062000032620000266200007760201b60201c565b6200007f60201b60201c565b6000600260006101000a81548160ff021916908360058111156200005b576200005a620003a4565b5b021790555062000071336200014360201b60201c565b620005c2565b600033905090565b60008060009054906101000a900473ffffffffffffffffffffffffffffffffffffffff169050816000806101000a81548173ffffffffffffffffffffffffffffffffffffffff021916908373ffffffffffffffffffffffffffffffffffffffff1602179055508173ffffffffffffffffffffffffffffffffffffffff168173ffffffffffffffffffffffffffffffffffffffff167f8be0079c531659141344cd1fd0a4f28419497f9722a3daafe3b4186f6b6457e060405160405180910390a35050565b620001536200007760201b60201c565b73ffffffffffffffffffffffffffffffffffffffff16620001796200037b60201b60201c565b73ffffffffffffffffffffffffffffffffffffffff1614620001d2576040517f08c379a0000000000000000000000000000000000000000000000000000000008152600401620001c99062000434565b60405180910390fd5b60006005811115620001e957620001e8620003a4565b5b600260009054906101000a900460ff1660058111156200020e576200020d620003a4565b5b1462000251576040517f08c379a00000000000000000000000000000000000000000000000000000000081526004016200024890620004cc565b60405180910390fd5b600460008273ffffffffffffffffffffffffffffffffffffffff1673ffffffffffffffffffffffffffffffffffffffff16815260200190815260200160002060000160009054906101000a900460ff1615620002e4576040517f08c379a0000000000000000000000000000000000000000000000000000000008152600401620002db906200053e565b60405180910390fd5b6001600460008373ffffffffffffffffffffffffffffffffffffffff1673ffffffffffffffffffffffffffffffffffffffff16815260200190815260200160002060000160006101000a81548160ff0219169083151502179055507fb6be2187d059cc2a55fe29e0e503b566e1e0f8c8780096e185429350acffd3dd81604051620003709190620005a5565b60405180910390a150565b60008060009054906101000a900473ffffffffffffffffffffffffffffffffffffffff16905090565b7f4e487b7100000000000000000000000000000000000000000000000000000000600052602160045260246000fd5b600082825260208201905092915050565b7f4f776e61626c653a2063616c6c6572206973206e6f7420746865206f776e6572600082015250565b60006200041c602083620003d3565b91506200042982620003e4565b602082019050919050565b600060208201905081810360008301526200044f816200040d565b9050919050565b7f54686520776f726b666c6f77207374617475732063616e6e6f7420616c6c6f7760008201527f656420796f7520746f2061646420766f746572732e0000000000000000000000602082015250565b6000620004b4603583620003d3565b9150620004c18262000456565b604082019050919050565b60006020820190508181036000830152620004e781620004a5565b9050919050565b7f54686520766f74657220697320616c726561647920726567697374657265642e600082015250565b600062000526602083620003d3565b91506200053382620004ee565b602082019050919050565b60006020820190508181036000830152620005598162000517565b9050919050565b600073ffffffffffffffffffffffffffffffffffffffff82169050919050565b60006200058d8262000560565b9050919050565b6200059f8162000580565b82525050565b6000602082019050620005bc600083018462000594565b92915050565b6130a680620005d26000396000f3fe608060405234801561001057600080fd5b50600436106101215760003560e01c80638da5cb5b116100ad578063d4f50f9811610071578063d4f50f981461025e578063e81e977b1461028e578063ee74c678146102ac578063f2fde38b146102b6578063f4ab9adf146102d257610121565b80638da5cb5b146101b85780638e7ea5b2146101d6578063a1a83387146101f4578063ba81d9fd14610210578063c7f758a81461022e57610121565b806362564c48116100f457806362564c4814610160578063715018a61461017e57806385d915781461018857806386c1ff68146101925780638c35b0c7146101ae57610121565b80630121b93f14610126578063017f25811461014257806317a0ad8e1461014c578063378a217814610156575b600080fd5b610140600480360381019061013b9190611e58565b6102ee565b005b61014a6105ab565b005b610154610704565b005b61015e61085e565b005b610168610a38565b604051610175919061202c565b60405180910390f35b610186610bc2565b005b610190610c4a565b005b6101ac60048036038101906101a791906120ac565b610da4565b005b6101b6610fba565b005b6101c06110ac565b6040516101cd91906120e8565b60405180910390f35b6101de6110d5565b6040516101eb9190612140565b60405180910390f35b61020e60048036038101906102099190612297565b611222565b005b610218611432565b6040516102259190612357565b60405180910390f35b61024860048036038101906102439190611e58565b611449565b6040516102559190612140565b60405180910390f35b610278600480360381019061027391906120ac565b6115f7565b60405161028591906123cf565b60405180910390f35b61029661171f565b6040516102a391906123f9565b60405180910390f35b6102b461179e565b005b6102d060048036038101906102cb91906120ac565b6118f8565b005b6102ec60048036038101906102e791906120ac565b6119f0565b005b600460003373ffffffffffffffffffffffffffffffffffffffff1673ffffffffffffffffffffffffffffffffffffffff16815260200190815260200160002060000160009054906101000a900460ff1661037d576040517f08c379a000000000000000000000000000000000000000000000000000000000815260040161037490612471565b60405180910390fd5b60036005811115610391576103906122e0565b5b600260009054906101000a900460ff1660058111156103b3576103b26122e0565b5b146103f3576040517f08c379a00000000000000000000000000000000000000000000000000000000081526004016103ea90612503565b60405180910390fd5b600380549050811061043a576040517f08c379a000000000000000000000000000000000000000000000000000000000815260040161043190612595565b60405180910390fd5b600460003373ffffffffffffffffffffffffffffffffffffffff1673ffffffffffffffffffffffffffffffffffffffff16815260200190815260200160002060000160019054906101000a900460ff16156104ca576040517f08c379a00000000000000000000000000000000000000000000000000000000081526004016104c190612601565b60405180910390fd5b6000600460003373ffffffffffffffffffffffffffffffffffffffff1673ffffffffffffffffffffffffffffffffffffffff168152602001908152602001600020905081816001018190555060018160000160016101000a81548160ff0219169083151502179055506003828154811061054757610546612621565b5b906000526020600020906002020160010160008154809291906105699061267f565b91905055507f4d99b957a2bc29a30ebd96a7be8e68fe50a3c701db28a91436490b7d53870ca4338360405161059f9291906126c8565b60405180910390a15050565b6105b3611c07565b73ffffffffffffffffffffffffffffffffffffffff166105d16110ac565b73ffffffffffffffffffffffffffffffffffffffff1614610627576040517f08c379a000000000000000000000000000000000000000000000000000000000815260040161061e9061273d565b60405180910390fd5b6001600581111561063b5761063a6122e0565b5b600260009054906101000a900460ff16600581111561065d5761065c6122e0565b5b1461069d576040517f08c379a0000000000000000000000000000000000000000000000000000000008152600401610694906127f5565b60405180910390fd5b60028060006101000a81548160ff021916908360058111156106c2576106c16122e0565b5b02179055507f0a97a4ee45751e2abf3e4fc8946939630b11b371ea8ae39ccdc3056e98f5cc3f600160026040516106fa929190612815565b60405180910390a1565b61070c611c07565b73ffffffffffffffffffffffffffffffffffffffff1661072a6110ac565b73ffffffffffffffffffffffffffffffffffffffff1614610780576040517f08c379a00000000000000000000000000000000000000000000000000000000081526004016107779061273d565b60405180910390fd5b60036005811115610794576107936122e0565b5b600260009054906101000a900460ff1660058111156107b6576107b56122e0565b5b146107f6576040517f08c379a00000000000000000000000000000000000000000000000000000000081526004016107ed906128d6565b60405180910390fd5b6004600260006101000a81548160ff0219169083600581111561081c5761081b6122e0565b5b02179055507f0a97a4ee45751e2abf3e4fc8946939630b11b371ea8ae39ccdc3056e98f5cc3f60036004604051610854929190612815565b60405180910390a1565b610866611c07565b73ffffffffffffffffffffffffffffffffffffffff166108846110ac565b73ffffffffffffffffffffffffffffffffffffffff16146108da576040517f08c379a00000000000000000000000000000000000000000000000000000000081526004016108d19061273d565b60405180910390fd5b600460058111156108ee576108ed6122e0565b5b600260009054906101000a900460ff1660058111156109105761090f6122e0565b5b14610950576040517f08c379a000000000000000000000000000000000000000000000000000000000815260040161094790612968565b60405180910390fd5b60005b6003805490508110156109cf576003818154811061097457610973612621565b5b90600052602060002090600202016001015460036001548154811061099c5761099b612621565b5b90600052602060002090600202016001015410156109bc57806001819055505b80806109c79061267f565b915050610953565b506005600260006101000a81548160ff021916908360058111156109f6576109f56122e0565b5b02179055507f0a97a4ee45751e2abf3e4fc8946939630b11b371ea8ae39ccdc3056e98f5cc3f60046005604051610a2e929190612815565b60405180910390a1565b6060600460003373ffffffffffffffffffffffffffffffffffffffff1673ffffffffffffffffffffffffffffffffffffffff16815260200190815260200160002060000160009054906101000a900460ff16610ac9576040517f08c379a0000000000000000000000000000000000000000000000000000000008152600401610ac090612471565b60405180910390fd5b6003805480602002602001604051908101604052809291908181526020016000905b82821015610bb95783829060005260206000209060020201604051806040016040529081600082018054610b1e906129b7565b80601f0160208091040260200160405190810160405280929190818152602001828054610b4a906129b7565b8015610b975780601f10610b6c57610100808354040283529160200191610b97565b820191906000526020600020905b815481529060010190602001808311610b7a57829003601f168201915b5050505050815260200160018201548152505081526020019060010190610aeb565b50505050905090565b610bca611c07565b73ffffffffffffffffffffffffffffffffffffffff16610be86110ac565b73ffffffffffffffffffffffffffffffffffffffff1614610c3e576040517f08c379a0000000000000000000000000000000000000000000000000000000008152600401610c359061273d565b60405180910390fd5b610c486000611c0f565b565b610c52611c07565b73ffffffffffffffffffffffffffffffffffffffff16610c706110ac565b73ffffffffffffffffffffffffffffffffffffffff1614610cc6576040517f08c379a0000000000000000000000000000000000000000000000000000000008152600401610cbd9061273d565b60405180910390fd5b60006005811115610cda57610cd96122e0565b5b600260009054906101000a900460ff166005811115610cfc57610cfb6122e0565b5b14610d3c576040517f08c379a0000000000000000000000000000000000000000000000000000000008152600401610d3390612a81565b60405180910390fd5b6001600260006101000a81548160ff02191690836005811115610d6257610d616122e0565b5b02179055507f0a97a4ee45751e2abf3e4fc8946939630b11b371ea8ae39ccdc3056e98f5cc3f60006001604051610d9a929190612815565b60405180910390a1565b610dac611c07565b73ffffffffffffffffffffffffffffffffffffffff16610dca6110ac565b73ffffffffffffffffffffffffffffffffffffffff1614610e20576040517f08c379a0000000000000000000000000000000000000000000000000000000008152600401610e179061273d565b60405180910390fd5b60006005811115610e3457610e336122e0565b5b600260009054906101000a900460ff166005811115610e5657610e556122e0565b5b14610e96576040517f08c379a0000000000000000000000000000000000000000000000000000000008152600401610e8d90612b13565b60405180910390fd5b600460008273ffffffffffffffffffffffffffffffffffffffff1673ffffffffffffffffffffffffffffffffffffffff16815260200190815260200160002060000160009054906101000a900460ff16610f25576040517f08c379a0000000000000000000000000000000000000000000000000000000008152600401610f1c90612ba5565b60405180910390fd5b6000600460008373ffffffffffffffffffffffffffffffffffffffff1673ffffffffffffffffffffffffffffffffffffffff16815260200190815260200160002060000160006101000a81548160ff0219169083151502179055507fb6be2187d059cc2a55fe29e0e503b566e1e0f8c8780096e185429350acffd3dd81604051610faf91906120e8565b60405180910390a150565b610fc2611c07565b73ffffffffffffffffffffffffffffffffffffffff16610fe06110ac565b73ffffffffffffffffffffffffffffffffffffffff1614611036576040517f08c379a000000000000000000000000000000000000000000000000000000000815260040161102d9061273d565b60405180910390fd5b61105373a6a0e2b63f74f6f16bf6df09da021ac8d4e32fbc6119f0565b61107073f5a08f0aef033c1e0466bf85661d51973db97aed6119f0565b61108d7379c0ece05791d98efe8383f973091443a32572b46119f0565b6110aa733e32fb744706830706ba69f3bfdbf5ddc299f4426119f0565b565b60008060009054906101000a900473ffffffffffffffffffffffffffffffffffffffff16905090565b6110dd611d2c565b6005808111156110f0576110ef6122e0565b5b600260009054906101000a900460ff166005811115611112576111116122e0565b5b14611152576040517f08c379a000000000000000000000000000000000000000000000000000000000815260040161114990612c5d565b60405180910390fd5b60036001548154811061116857611167612621565b5b9060005260206000209060020201604051806040016040529081600082018054611191906129b7565b80601f01602080910402602001604051908101604052809291908181526020018280546111bd906129b7565b801561120a5780601f106111df5761010080835404028352916020019161120a565b820191906000526020600020905b8154815290600101906020018083116111ed57829003601f168201915b50505050508152602001600182015481525050905090565b600460003373ffffffffffffffffffffffffffffffffffffffff1673ffffffffffffffffffffffffffffffffffffffff16815260200190815260200160002060000160009054906101000a900460ff166112b1576040517f08c379a00000000000000000000000000000000000000000000000000000000081526004016112a890612471565b60405180910390fd5b600160058111156112c5576112c46122e0565b5b600260009054906101000a900460ff1660058111156112e7576112e66122e0565b5b14611327576040517f08c379a000000000000000000000000000000000000000000000000000000000815260040161131e90612cef565b60405180910390fd5b6113408160405180602001604052806000815250611cd3565b15611380576040517f08c379a000000000000000000000000000000000000000000000000000000000815260040161137790612d81565b60405180910390fd5b611388611d2c565b818160000181905250600381908060018154018082558091505060019003906000526020600020906002020160009091909190915060008201518160000190805190602001906113d9929190611d46565b506020820151816001015550507f92e393e9b54e2f801d3ea4beb0c5e71a21cc34a5d34b77d0fb8a3aa1650dc18f60016003805490506114199190612da1565b60405161142691906123f9565b60405180910390a15050565b6000600260009054906101000a900460ff16905090565b611451611d2c565b600460003373ffffffffffffffffffffffffffffffffffffffff1673ffffffffffffffffffffffffffffffffffffffff16815260200190815260200160002060000160009054906101000a900460ff166114e0576040517f08c379a00000000000000000000000000000000000000000000000000000000081526004016114d790612471565b60405180910390fd5b6003805490508210611527576040517f08c379a000000000000000000000000000000000000000000000000000000000815260040161151e90612595565b60405180910390fd5b6003828154811061153b5761153a612621565b5b9060005260206000209060020201604051806040016040529081600082018054611564906129b7565b80601f0160208091040260200160405190810160405280929190818152602001828054611590906129b7565b80156115dd5780601f106115b2576101008083540402835291602001916115dd565b820191906000526020600020905b8154815290600101906020018083116115c057829003601f168201915b505050505081526020016001820154815250509050919050565b6115ff611dcc565b600460003373ffffffffffffffffffffffffffffffffffffffff1673ffffffffffffffffffffffffffffffffffffffff16815260200190815260200160002060000160009054906101000a900460ff1661168e576040517f08c379a000000000000000000000000000000000000000000000000000000000815260040161168590612471565b60405180910390fd5b600460008373ffffffffffffffffffffffffffffffffffffffff1673ffffffffffffffffffffffffffffffffffffffff1681526020019081526020016000206040518060600160405290816000820160009054906101000a900460ff161515151581526020016000820160019054906101000a900460ff161515151581526020016001820154815250509050919050565b6000600580811115611734576117336122e0565b5b600260009054906101000a900460ff166005811115611756576117556122e0565b5b14611796576040517f08c379a000000000000000000000000000000000000000000000000000000000815260040161178d90612c5d565b60405180910390fd5b600154905090565b6117a6611c07565b73ffffffffffffffffffffffffffffffffffffffff166117c46110ac565b73ffffffffffffffffffffffffffffffffffffffff161461181a576040517f08c379a00000000000000000000000000000000000000000000000000000000081526004016118119061273d565b60405180910390fd5b6002600581111561182e5761182d6122e0565b5b600260009054906101000a900460ff1660058111156118505761184f6122e0565b5b14611890576040517f08c379a000000000000000000000000000000000000000000000000000000000815260040161188790612e6d565b60405180910390fd5b6003600260006101000a81548160ff021916908360058111156118b6576118b56122e0565b5b02179055507f0a97a4ee45751e2abf3e4fc8946939630b11b371ea8ae39ccdc3056e98f5cc3f600260036040516118ee929190612815565b60405180910390a1565b611900611c07565b73ffffffffffffffffffffffffffffffffffffffff1661191e6110ac565b73ffffffffffffffffffffffffffffffffffffffff1614611974576040517f08c379a000000000000000000000000000000000000000000000000000000000815260040161196b9061273d565b60405180910390fd5b600073ffffffffffffffffffffffffffffffffffffffff168173ffffffffffffffffffffffffffffffffffffffff1614156119e4576040517f08c379a00000000000000000000000000000000000000000000000000000000081526004016119db90612eff565b60405180910390fd5b6119ed81611c0f565b50565b6119f8611c07565b73ffffffffffffffffffffffffffffffffffffffff16611a166110ac565b73ffffffffffffffffffffffffffffffffffffffff1614611a6c576040517f08c379a0000000000000000000000000000000000000000000000000000000008152600401611a639061273d565b60405180910390fd5b60006005811115611a8057611a7f6122e0565b5b600260009054906101000a900460ff166005811115611aa257611aa16122e0565b5b14611ae2576040517f08c379a0000000000000000000000000000000000000000000000000000000008152600401611ad990612f91565b60405180910390fd5b600460008273ffffffffffffffffffffffffffffffffffffffff1673ffffffffffffffffffffffffffffffffffffffff16815260200190815260200160002060000160009054906101000a900460ff1615611b72576040517f08c379a0000000000000000000000000000000000000000000000000000000008152600401611b6990612ffd565b60405180910390fd5b6001600460008373ffffffffffffffffffffffffffffffffffffffff1673ffffffffffffffffffffffffffffffffffffffff16815260200190815260200160002060000160006101000a81548160ff0219169083151502179055507fb6be2187d059cc2a55fe29e0e503b566e1e0f8c8780096e185429350acffd3dd81604051611bfc91906120e8565b60405180910390a150565b600033905090565b60008060009054906101000a900473ffffffffffffffffffffffffffffffffffffffff169050816000806101000a81548173ffffffffffffffffffffffffffffffffffffffff021916908373ffffffffffffffffffffffffffffffffffffffff1602179055508173ffffffffffffffffffffffffffffffffffffffff168173ffffffffffffffffffffffffffffffffffffffff167f8be0079c531659141344cd1fd0a4f28419497f9722a3daafe3b4186f6b6457e060405160405180910390a35050565b600081604051602001611ce69190613059565b6040516020818303038152906040528051906020012083604051602001611d0d9190613059565b6040516020818303038152906040528051906020012014905092915050565b604051806040016040528060608152602001600081525090565b828054611d52906129b7565b90600052602060002090601f016020900481019282611d745760008555611dbb565b82601f10611d8d57805160ff1916838001178555611dbb565b82800160010185558215611dbb579182015b82811115611dba578251825591602001919060010190611d9f565b5b509050611dc89190611df1565b5090565b6040518060600160405280600015158152602001600015158152602001600081525090565b5b80821115611e0a576000816000905550600101611df2565b5090565b6000604051905090565b600080fd5b600080fd5b6000819050919050565b611e3581611e22565b8114611e4057600080fd5b50565b600081359050611e5281611e2c565b92915050565b600060208284031215611e6e57611e6d611e18565b5b6000611e7c84828501611e43565b91505092915050565b600081519050919050565b600082825260208201905092915050565b6000819050602082019050919050565b600081519050919050565b600082825260208201905092915050565b60005b83811015611eeb578082015181840152602081019050611ed0565b83811115611efa576000848401525b50505050565b6000601f19601f8301169050919050565b6000611f1c82611eb1565b611f268185611ebc565b9350611f36818560208601611ecd565b611f3f81611f00565b840191505092915050565b611f5381611e22565b82525050565b60006040830160008301518482036000860152611f768282611f11565b9150506020830151611f8b6020860182611f4a565b508091505092915050565b6000611fa28383611f59565b905092915050565b6000602082019050919050565b6000611fc282611e85565b611fcc8185611e90565b935083602082028501611fde85611ea1565b8060005b8581101561201a5784840389528151611ffb8582611f96565b945061200683611faa565b925060208a01995050600181019050611fe2565b50829750879550505050505092915050565b600060208201905081810360008301526120468184611fb7565b905092915050565b600073ffffffffffffffffffffffffffffffffffffffff82169050919050565b60006120798261204e565b9050919050565b6120898161206e565b811461209457600080fd5b50565b6000813590506120a681612080565b92915050565b6000602082840312156120c2576120c1611e18565b5b60006120d084828501612097565b91505092915050565b6120e28161206e565b82525050565b60006020820190506120fd60008301846120d9565b92915050565b600060408301600083015184820360008601526121208282611f11565b91505060208301516121356020860182611f4a565b508091505092915050565b6000602082019050818103600083015261215a8184612103565b905092915050565b600080fd5b600080fd5b7f4e487b7100000000000000000000000000000000000000000000000000000000600052604160045260246000fd5b6121a482611f00565b810181811067ffffffffffffffff821117156121c3576121c261216c565b5b80604052505050565b60006121d6611e0e565b90506121e2828261219b565b919050565b600067ffffffffffffffff8211156122025761220161216c565b5b61220b82611f00565b9050602081019050919050565b82818337600083830152505050565b600061223a612235846121e7565b6121cc565b90508281526020810184848401111561225657612255612167565b5b612261848285612218565b509392505050565b600082601f83011261227e5761227d612162565b5b813561228e848260208601612227565b91505092915050565b6000602082840312156122ad576122ac611e18565b5b600082013567ffffffffffffffff8111156122cb576122ca611e1d565b5b6122d784828501612269565b91505092915050565b7f4e487b7100000000000000000000000000000000000000000000000000000000600052602160045260246000fd5b600681106123205761231f6122e0565b5b50565b60008190506123318261230f565b919050565b600061234182612323565b9050919050565b61235181612336565b82525050565b600060208201905061236c6000830184612348565b92915050565b60008115159050919050565b61238781612372565b82525050565b6060820160008201516123a3600085018261237e565b5060208201516123b6602085018261237e565b5060408201516123c96040850182611f4a565b50505050565b60006060820190506123e4600083018461238d565b92915050565b6123f381611e22565b82525050565b600060208201905061240e60008301846123ea565b92915050565b600082825260208201905092915050565b7f596f7520617265206e6f74207265676973746572656420617320766f7465722e600082015250565b600061245b602083612414565b915061246682612425565b602082019050919050565b6000602082019050818103600083015261248a8161244e565b9050919050565b7f54686520776f726b666c6f77207374617475732063616e6e6f7420616c6c6f7760008201527f656420796f7520746f20766f74652e0000000000000000000000000000000000602082015250565b60006124ed602f83612414565b91506124f882612491565b604082019050919050565b6000602082019050818103600083015261251c816124e0565b9050919050565b7f50726f706f73616c206e6f7420666f756e642e20506c6561736520656e74657260008201527f20612076616c69642069642e0000000000000000000000000000000000000000602082015250565b600061257f602c83612414565b915061258a82612523565b604082019050919050565b600060208201905081810360008301526125ae81612572565b9050919050565b7f596f75206861766520616c726561647920766f7465642e000000000000000000600082015250565b60006125eb601783612414565b91506125f6826125b5565b602082019050919050565b6000602082019050818103600083015261261a816125de565b9050919050565b7f4e487b7100000000000000000000000000000000000000000000000000000000600052603260045260246000fd5b7f4e487b7100000000000000000000000000000000000000000000000000000000600052601160045260246000fd5b600061268a82611e22565b91507fffffffffffffffffffffffffffffffffffffffffffffffffffffffffffffffff8214156126bd576126bc612650565b5b600182019050919050565b60006040820190506126dd60008301856120d9565b6126ea60208301846123ea565b9392505050565b7f4f776e61626c653a2063616c6c6572206973206e6f7420746865206f776e6572600082015250565b6000612727602083612414565b9150612732826126f1565b602082019050919050565b600060208201905081810360008301526127568161271a565b9050919050565b7f54686520776f726b666c6f77207374617475732063616e6e6f7420616c6c6f7760008201527f656420796f7520746f2073746f70207265676973746572696e672070726f706f60208201527f73616c732e000000000000000000000000000000000000000000000000000000604082015250565b60006127df604583612414565b91506127ea8261275d565b606082019050919050565b6000602082019050818103600083015261280e816127d2565b9050919050565b600060408201905061282a6000830185612348565b6128376020830184612348565b9392505050565b7f54686520776f726b666c6f77207374617475732063616e6e6f7420616c6c6f7760008201527f656420796f7520746f2073746f702074686520766f74696e672073657373696f60208201527f6e2e000000000000000000000000000000000000000000000000000000000000604082015250565b60006128c0604283612414565b91506128cb8261283e565b606082019050919050565b600060208201905081810360008301526128ef816128b3565b9050919050565b7f54686520776f726b666c6f77207374617475732063616e6e6f7420616c6c6f7760008201527f656420796f7520746f2074616c6c7920766f7465732e00000000000000000000602082015250565b6000612952603683612414565b915061295d826128f6565b604082019050919050565b6000602082019050818103600083015261298181612945565b9050919050565b7f4e487b7100000000000000000000000000000000000000000000000000000000600052602260045260246000fd5b600060028204905060018216806129cf57607f821691505b602082108114156129e3576129e2612988565b5b50919050565b7f54686520776f726b666c6f77207374617475732063616e6e6f7420616c6c6f7760008201527f656420796f7520746f207374617274207265676973746572696e672070726f7060208201527f6f73616c732e0000000000000000000000000000000000000000000000000000604082015250565b6000612a6b604683612414565b9150612a76826129e9565b606082019050919050565b60006020820190508181036000830152612a9a81612a5e565b9050919050565b7f54686520776f726b666c6f77207374617475732063616e6e6f7420616c6c6f7760008201527f656420796f7520746f2072656d6f766520766f746572732e0000000000000000602082015250565b6000612afd603883612414565b9150612b0882612aa1565b604082019050919050565b60006020820190508181036000830152612b2c81612af0565b9050919050565b7f54686520766f74657220697320616c7265616479206e6f74207265676973746560008201527f7265642e00000000000000000000000000000000000000000000000000000000602082015250565b6000612b8f602483612414565b9150612b9a82612b33565b604082019050919050565b60006020820190508181036000830152612bbe81612b82565b9050919050565b7f54686520776f726b666c6f77207374617475732063616e6e6f7420616c6c6f7760008201527f656420796f7520746f20736565207468652077696e6e65722070726f706f736160208201527f6c2e000000000000000000000000000000000000000000000000000000000000604082015250565b6000612c47604283612414565b9150612c5282612bc5565b606082019050919050565b60006020820190508181036000830152612c7681612c3a565b9050919050565b7f54686520776f726b666c6f77207374617475732063616e6e6f7420616c6c6f7760008201527f656420796f7520746f20726571756573742070726f706f73616c732e00000000602082015250565b6000612cd9603c83612414565b9150612ce482612c7d565b604082019050919050565b60006020820190508181036000830152612d0881612ccc565b9050919050565b7f506c6561736520656e74657220612076616c6964206465736372697074696f6e60008201527f2e00000000000000000000000000000000000000000000000000000000000000602082015250565b6000612d6b602183612414565b9150612d7682612d0f565b604082019050919050565b60006020820190508181036000830152612d9a81612d5e565b9050919050565b6000612dac82611e22565b9150612db783611e22565b925082821015612dca57612dc9612650565b5b828203905092915050565b7f54686520776f726b666c6f77207374617475732063616e6e6f7420616c6c6f7760008201527f656420796f7520746f2073746172742074686520766f74696e6720736573736960208201527f6f6e2e0000000000000000000000000000000000000000000000000000000000604082015250565b6000612e57604383612414565b9150612e6282612dd5565b606082019050919050565b60006020820190508181036000830152612e8681612e4a565b9050919050565b7f4f776e61626c653a206e6577206f776e657220697320746865207a65726f206160008201527f6464726573730000000000000000000000000000000000000000000000000000602082015250565b6000612ee9602683612414565b9150612ef482612e8d565b604082019050919050565b60006020820190508181036000830152612f1881612edc565b9050919050565b7f54686520776f726b666c6f77207374617475732063616e6e6f7420616c6c6f7760008201527f656420796f7520746f2061646420766f746572732e0000000000000000000000602082015250565b6000612f7b603583612414565b9150612f8682612f1f565b604082019050919050565b60006020820190508181036000830152612faa81612f6e565b9050919050565b7f54686520766f74657220697320616c726561647920726567697374657265642e600082015250565b6000612fe7602083612414565b9150612ff282612fb1565b602082019050919050565b6000602082019050818103600083015261301681612fda565b9050919050565b600081905092915050565b600061303382611eb1565b61303d818561301d565b935061304d818560208601611ecd565b80840191505092915050565b60006130658284613028565b91508190509291505056fea264697066735822122099e36cd69c2fab74b29d73b5abd847125e9ed6ce74855ffee4c6a66dbf779b6d64736f6c63430008090033",
  "immutableReferences": {},
  "source": "// SPDX-License-Identifier: MIT\n\npragma solidity ^0.8.9;\n\nimport \"@openzeppelin/contracts/access/Ownable.sol\";\n\n/**\n * @title Voting\n *\n * @dev A voting system.\n */\ncontract Voting is Ownable {\n    struct Voter {\n        bool isRegistered;\n        bool hasVoted;\n        uint votedProposalId;\n    }\n    struct Proposal {\n        string description;\n        uint voteCount;\n    }\n\n    enum WorkflowStatus {\n        RegisteringVoters,\n        ProposalsRegistrationStarted,\n        ProposalsRegistrationEnded,\n        VotingSessionStarted,\n        VotingSessionEnded,\n        VotesTallied\n    }\n    \n    event VoterRegistered(address voterAddress); \n    event WorkflowStatusChange(WorkflowStatus previousStatus, WorkflowStatus newStatus);\n    event ProposalRegistered(uint proposalId);\n    event Voted (address voter, uint proposalId);\n\n    uint private winningProposalId;\n    WorkflowStatus private workflowStatus;\n    Proposal[] private proposals;\n    mapping (address => Voter) private voters;\n\n    /**\n     * @dev Constructor.\n     */\n    constructor() Ownable() {\n        workflowStatus = WorkflowStatus.RegisteringVoters;\n        addVoter(msg.sender);\n    }\n\n    /**\n     * @dev Check if the sender is registered in the voters list.\n     */\n    modifier onlyVoters() {\n        require(voters[msg.sender].isRegistered, \"You are not registered as voter.\");\n        _;\n    }\n\n    /**\n     * @dev Compare two string and return a boolean.\n     *\n     * @param str1 The first string.\n     * @param str2 The second string.\n     *\n     * @return bool Returns false if there is a difference, otherwise returns true.\n     */\n    function strcmp(string memory str1, string memory str2) internal pure returns (bool) {\n        return (keccak256(abi.encodePacked((str1))) == keccak256(abi.encodePacked((str2))));\n    }\n\n    /**\n     * @dev Initialize the whitelist with specific addresses for demo.\n     */\n    function initWhitelistForDemo() public onlyOwner {\n        addVoter(0xa6a0E2b63F74f6F16bf6DF09dA021ac8D4E32fBc);\n        addVoter(0xf5A08f0aEf033c1e0466bF85661d51973DB97aEd);\n        addVoter(0x79C0ece05791d98Efe8383F973091443A32572b4);\n        addVoter(0x3e32fB744706830706ba69F3bfDbf5dDC299f442);\n    }\n\n    /**\n     * @dev Get the workflow status.\n     *\n     * @return Workflowstatus The workflowStatus.\n     */\n    function getWorkflowstatus() public view returns (WorkflowStatus) {\n        return workflowStatus;\n    }\n\n    /**\n     * @dev Add a voter address into the voters list.\n     *\n     * @param _voterAddress The voter address.\n     */\n    function addVoter(address _voterAddress) public onlyOwner {\n        require(workflowStatus == WorkflowStatus.RegisteringVoters, 'The workflow status cannot allowed you to add voters.');\n        require(!voters[_voterAddress].isRegistered, 'The voter is already registered.');\n\n        voters[_voterAddress].isRegistered = true;\n\n        emit VoterRegistered(_voterAddress);\n    }\n\n    /**\n     * @dev Remove a voter address from the voters list.\n     *\n     * @param _voterAddress The voter address.\n     */\n    function removeVoter(address _voterAddress) public onlyOwner {\n        require(workflowStatus == WorkflowStatus.RegisteringVoters, 'The workflow status cannot allowed you to remove voters.');\n        require(voters[_voterAddress].isRegistered, 'The voter is already not registered.');\n\n        voters[_voterAddress].isRegistered = false;\n\n        emit VoterRegistered(_voterAddress);\n    }\n\n    /**\n     * @dev Get a voter information.\n     *\n     * @param _voterAddress The voter address.\n     *\n     * @return Voter The voter.\n     */\n    function getVoter(address _voterAddress) public onlyVoters view returns (Voter memory) {\n        return voters[_voterAddress];\n    }\n\n    /**\n     * @dev Request a proposal with a description.\n     *\n     * @param _description The description of the proposal.\n     */\n    function requestProposal(string memory _description) public onlyVoters {\n        require(workflowStatus == WorkflowStatus.ProposalsRegistrationStarted, 'The workflow status cannot allowed you to request proposals.');\n        require(!strcmp(_description, ''), 'Please enter a valid description.');\n\n        Proposal memory proposal;\n        proposal.description = _description;\n        proposals.push(proposal);\n\n        emit ProposalRegistered(proposals.length - 1);\n    }\n\n    /**\n     * @dev Get all proposal.\n     *\n     * @return Proposal[] The proposal list.\n     */\n    function getProposals() public view onlyVoters returns (Proposal[] memory)  {\n        return proposals;\n    }\n\n    /**\n     * @dev Get a proposal information with an the proposal id.\n     *\n     * @param _proposalId The proposal id.\n     *\n     * @return Proposal The proposal information.\n     */\n    function getProposal(uint _proposalId) public view onlyVoters returns (Proposal memory) {\n        require(_proposalId < proposals.length, 'Proposal not found. Please enter a valid id.');\n\n        return proposals[_proposalId];\n    }\n\n    /**\n     * @dev Start to register proposals.\n     */\n    function startRegisteringProposals() public onlyOwner {\n        require(workflowStatus == WorkflowStatus.RegisteringVoters, 'The workflow status cannot allowed you to start registering proposals.');\n\n        workflowStatus = WorkflowStatus.ProposalsRegistrationStarted;\n\n        emit WorkflowStatusChange(WorkflowStatus.RegisteringVoters, WorkflowStatus.ProposalsRegistrationStarted);\n    }\n\n    /**\n     * @dev Stop registering proposals.\n     */\n    function stopRegisteringProposals() public onlyOwner {\n        require(workflowStatus == WorkflowStatus.ProposalsRegistrationStarted, 'The workflow status cannot allowed you to stop registering proposals.');\n        \n        workflowStatus = WorkflowStatus.ProposalsRegistrationEnded;\n\n        emit WorkflowStatusChange(WorkflowStatus.ProposalsRegistrationStarted, WorkflowStatus.ProposalsRegistrationEnded);\n    }\n\n    /**\n     * @dev Start the voting session.\n     */\n    function startVotingSession() public onlyOwner {\n        require(workflowStatus == WorkflowStatus.ProposalsRegistrationEnded, 'The workflow status cannot allowed you to start the voting session.');\n        \n        workflowStatus = WorkflowStatus.VotingSessionStarted;\n        \n        emit WorkflowStatusChange(WorkflowStatus.ProposalsRegistrationEnded, WorkflowStatus.VotingSessionStarted);\n    }\n\n    /**\n     * @dev Vote to a proposal.\n     *\n     * @param _proposalId The proposal id.\n     */\n    function vote(uint _proposalId) public onlyVoters {\n        require(workflowStatus == WorkflowStatus.VotingSessionStarted, 'The workflow status cannot allowed you to vote.');\n        require(_proposalId < proposals.length, 'Proposal not found. Please enter a valid id.');\n        require(!voters[msg.sender].hasVoted, 'You have already voted.');\n\n        Voter storage voter = voters[msg.sender];\n        voter.votedProposalId = _proposalId;\n        voter.hasVoted = true;\n        proposals[_proposalId].voteCount++;\n\n        emit Voted(msg.sender, _proposalId);\n    }\n\n    /**\n     * @dev Stop the voting session.\n     */\n    function stopVotingSession() public onlyOwner {\n        require(workflowStatus == WorkflowStatus.VotingSessionStarted, 'The workflow status cannot allowed you to stop the voting session.');\n        \n        workflowStatus = WorkflowStatus.VotingSessionEnded;\n        \n        emit WorkflowStatusChange(WorkflowStatus.VotingSessionStarted, WorkflowStatus.VotingSessionEnded);\n    }\n\n    /**\n     * @dev Tally all votes.\n     */\n    function tallyVotes() public onlyOwner {\n        require(workflowStatus == WorkflowStatus.VotingSessionEnded, 'The workflow status cannot allowed you to tally votes.');\n\n        for (uint i = 0; i < proposals.length; i++) {\n            if (proposals[winningProposalId].voteCount < proposals[i].voteCount) {\n                winningProposalId = i;\n            }\n        }\n\n        workflowStatus = WorkflowStatus.VotesTallied;\n\n        emit WorkflowStatusChange(WorkflowStatus.VotingSessionEnded, WorkflowStatus.VotesTallied);\n    }\n\n    /**\n     * @dev Get the winning proposal id.\n     *\n     * @return uint The winning proposal id..\n     */\n    function getWinningProposalId() public view returns (uint) {\n        require(workflowStatus == WorkflowStatus.VotesTallied, 'The workflow status cannot allowed you to see the winner proposal.');\n\n        return winningProposalId;\n    }\n\n    /**\n     * @dev Get the winning proposal detail.\n     *\n     * @return Proposal The winning proposal.\n     */\n    function getWinner() public view returns (Proposal memory) {\n        require(workflowStatus == WorkflowStatus.VotesTallied, 'The workflow status cannot allowed you to see the winner proposal.');\n\n        return proposals[winningProposalId];\n    }\n}\n",
  "sourcePath": "/Users/deyibanh/Documents/Professionnel/Alyra/Applications/alyra-defi1-voting/contracts/Voting.sol",
  "compiler": {
    "name": "solc",
    "version": "0.8.9+commit.e5eed63a.Emscripten.clang"
  },
  "schemaVersion": "3.4.3",
  "updatedAt": "2021-11-02T13:17:24.498Z",
  "networkType": "ethereum",
  "devdoc": {
    "details": "A voting system.",
    "kind": "dev",
    "methods": {
      "addVoter(address)": {
        "details": "Add a voter address into the voters list.",
        "params": {
          "_voterAddress": "The voter address."
        }
      },
      "constructor": {
        "details": "Constructor."
      },
      "getProposal(uint256)": {
        "details": "Get a proposal information with an the proposal id.",
        "params": {
          "_proposalId": "The proposal id."
        },
        "returns": {
          "_0": "Proposal The proposal information."
        }
      },
      "getProposals()": {
        "details": "Get all proposal.",
        "returns": {
          "_0": "Proposal[] The proposal list."
        }
      },
      "getVoter(address)": {
        "details": "Get a voter information.",
        "params": {
          "_voterAddress": "The voter address."
        },
        "returns": {
          "_0": "Voter The voter."
        }
      },
      "getWinner()": {
        "details": "Get the winning proposal detail.",
        "returns": {
          "_0": "Proposal The winning proposal."
        }
      },
      "getWinningProposalId()": {
        "details": "Get the winning proposal id.",
        "returns": {
          "_0": "uint The winning proposal id.."
        }
      },
      "getWorkflowstatus()": {
        "details": "Get the workflow status.",
        "returns": {
          "_0": "Workflowstatus The workflowStatus."
        }
      },
      "initWhitelistForDemo()": {
        "details": "Initialize the whitelist with specific addresses for demo."
      },
      "owner()": {
        "details": "Returns the address of the current owner."
      },
      "removeVoter(address)": {
        "details": "Remove a voter address from the voters list.",
        "params": {
          "_voterAddress": "The voter address."
        }
      },
      "renounceOwnership()": {
        "details": "Leaves the contract without owner. It will not be possible to call `onlyOwner` functions anymore. Can only be called by the current owner. NOTE: Renouncing ownership will leave the contract without an owner, thereby removing any functionality that is only available to the owner."
      },
      "requestProposal(string)": {
        "details": "Request a proposal with a description.",
        "params": {
          "_description": "The description of the proposal."
        }
      },
      "startRegisteringProposals()": {
        "details": "Start to register proposals."
      },
      "startVotingSession()": {
        "details": "Start the voting session."
      },
      "stopRegisteringProposals()": {
        "details": "Stop registering proposals."
      },
      "stopVotingSession()": {
        "details": "Stop the voting session."
      },
      "tallyVotes()": {
        "details": "Tally all votes."
      },
      "transferOwnership(address)": {
        "details": "Transfers ownership of the contract to a new account (`newOwner`). Can only be called by the current owner."
      },
      "vote(uint256)": {
        "details": "Vote to a proposal.",
        "params": {
          "_proposalId": "The proposal id."
        }
      }
    },
    "title": "Voting",
    "version": 1
  },
  "userdoc": {
    "kind": "user",
    "methods": {},
    "version": 1
  }
}